:1000000093C0ADC0ACC0ABC0AAC0A9C0A8C0A7C0B7
:10001000A6C0A5C0A4C0BEC0A2C0A1C0FFC09FC052
:100020009EC09DC09CC06E616E00696E66000040FF
:100030007A10F35A00A0724E18090010A5D4E800F7
:1000400000E87648170000E40B54020000CA9A3B0F
:10005000000000E1F5050000809698000000404295
:100060000F000000A0860100000010270000000023
:10007000E803000000006400000000000A00000027
:1000800000000100000000002C76D888DC674F08D3
:1000900023DFC1DFAE59E1B1B796E5E3E453C63AD9
:1000A000E651997696E8E6C28426EB898C9B62ED50
:1000B000407C6FFCEFBC9C9F40F2BAA56FA5F4900A
:1000C000055A2AF75C936B6CF9676DC11BFCE0E481
:1000D0000D47FEF520E6B500D0ED902E03009435D7
:1000E00077050080841E080000204E0A000000C82A
:1000F0000C333333330F986E12831141EF8D21147B
:10010000893BE65516CFFEE6DB18D1844B381BF74A
:100110007C1D901DA4BBE424203284725E228100E9
:10012000C9F124ECA1E53D2711241FBECFE5D4E0A1
:10013000DEBFCDBF10E0A0E6B0E0E8EFFFE002C018
:1001400005900D92A239B107D9F710E0A2E9B0E00D
:1001500001C01D92A63DB107E1F79FD04BC750CF1C
:100160008CB95D9BFECF5D9A0895FC0105C08CB9EA
:100170005D9BFECF31965D9A80818823C1F78DE02B
:100180008CB95D9BFECF5D9A8AE08CB95D9BFECFFA
:100190005D9A08951F920F920FB60F9211242F931C
:1001A0003F938F93EF93FF932091B3003091B4006E
:1001B0008CB1F901EB54FF4F808380818D3019F0B1
:1001C00080818A3039F4F901EB54FF4F108281E0CD
:1001D0008093D3002D31310534F42F5F3F4F30939E
:1001E000B4002093B300FF91EF918F913F912F9135
:1001F0000F900FBE0F901F9018951092B4001092A0
:10020000B3001092D300089586B18E6886B981E458
:1002100087B9109293001092920008951F920F9246
:100220000FB60F9211242F933F938F939F9320919A
:10023000D4003091D50084B195B1820F931F909373
:10024000D5008093D4008091920090919300019604
:1002500090939300809392008091920090919300EC
:10026000409714F4369A05C0809194008160809381
:1002700094009F918F913F912F910F900FBE0F90FF
:100280001F901895109294001092D5001092D400EF
:1002900010929300109292000895CF92DF92EF9205
:1002A000FF920F931F93CF93DF9380E690E05DDF83
:1002B000789486B18E6886B981E487B910929300EC
:1002C00010929200369AC5E9D0E046E8C42E40E08C
:1002D000D42E38EBE32EF12C8091D300882349F003
:1002E00085EB90E042DF1092B4001092B3001092C0
:1002F000D30080919400882379F38091D400909169
:10030000D50024E0969587952A95E1F79093D5003E
:100310008093D4006091D4007091D5008DB79EB7C2
:1003200008970FB6F8949EBF0FBE8DBF0DB71EB7CE
:100330000F5F1F4FEDB7FEB7D283C183F801D382A1
:10034000C28280E090E095D320E030E040EA50E4C3
:10035000CDD320E030E040E85AE3C8D3F80164830D
:10036000758386839783C7D58DB79EB708960FB6DA
:10037000F8949EBF0FBE8DBFCE01F7DE84EC99E0EE
:10038000F7013197F1F70197D9F710929400109285
:10039000D5001092D4001092930010929200369AD9
:1003A0009BCFA1E1B0E0E6EDF1E054C43C017F87D2
:1003B0006E876A01FC0117821682838181FD03C06A
:1003C0006FEF7FEF52C39E012F5F3F4F398B288B1A
:1003D000F3012381EE85FF8523FD859123FF819124
:1003E000FF87EE87882309F43DC3853251F4EE85FB
:1003F000FF8523FD859123FF8191FF87EE8785325D
:1004000021F490E0B3014BD5E3CF982F10E088247E
:1004100099241032B0F49B3269F09C3228F4903267
:1004200051F0933271F40BC09D3239F0903349F49E
:10043000116028C01260146025C0186023C01061CC
:1004400021C017FD2AC0892F80538A3078F416FF07
:1004500006C0FAE09F9E902C1124980E13C03AE03B
:10046000839E802C1124880E10620CC09E3221F4D1
:1004700016FDF8C2106406C09C3611F4106802C064
:10048000983659F4EE85FF8523FD959123FF9191D0
:10049000FF87EE87992309F0BCCF892F85548330DD
:1004A00020F4812F8061905E07C0892F85568330AC
:1004B00008F08FC1812F8F7E86FD02C076E0972ED7
:1004C0006FE3F62EF822953619F4F0E4FF2A07C000
:1004D000963619F420E8F22A02C091109A94F7FE99
:1004E0000AC03BE3391518F45CE3B52E02C0B92C01
:1004F000B39427E009C047E0491520F4BB2447E046
:10050000942EF7CF292DBB24C60104969D878C8796
:10051000F6016081718182819381AE014F5F5F4FEF
:100520000B2DCFD36C010981202E332400FF04C092
:1005300003FD02C01DE209C0F1FE02C01BE205C0BE
:10054000F2FC02C010E001C010E2C1018C7090709A
:10055000892BA1F1112311F483E001C084E08815F7
:1005600010F0882409C0881AF3FC06C080E290E0ED
:10057000B30195D48A94D1F7112321F0812F90E013
:10058000B3018DD423FE03C006E210E00DC00AE2E1
:1005900010E00AC0E114F10409F0805290E0B301C8
:1005A0007ED40F5F1F4F05C0EF2CFF24F0E1EF2238
:1005B000FF24F8018491882369F708C1F7FE12C06F
:1005C000BC0C24FE04C08A81813309F4BA941B1444
:1005D0001CF0BB24B3942DC0F8E0FB1550F538E0B7
:1005E000B32E27C0F6FC25C0892D90E08C159D0503
:1005F0004CF02CEFC2162FEFD20624F030E8F32A8D
:1006000001C09A94992049F0E2E0F0E0EC0FFD1F60
:10061000E90DF11D80818033A1F3F7FE0AC0B92CEA
:10062000B394892D90E0C816D90614F0992401C01E
:100630009C18F7FC03C025E030E009C01C141D0421
:100640001CF021E030E003C096012F5F3F4F1123E3
:1006500011F02F5F3F4F992029F0892D90E00196EE
:10066000280F391F882D90E02817390714F08824A7
:1006700001C0821A4F2C5524C20189709070892BB9
:1006800031F007C080E290E0B30109D48A94882059
:10069000C9F7112321F0812F90E0B30100D443FE6C
:1006A00006C007C080E390E0B301F9D38A948820A4
:1006B000C9F7F7FE44C08601D7FE02C000E010E093
:1006C00076010894E11CF11CE01AF10A41E050E0C7
:1006D0004C0F5D1FE40EF51E26014B185108892DA5
:1006E00090E0AA24BB24A81AB90A5FEF0F3F1507B0
:1006F00021F48EE290E0B301D2D3C016D10634F0DB
:10070000401651061CF4F701808101C080E30150BE
:1007100010400894E11CF11C0A151B0524F090E020
:10072000B301BDD3E2CF0C151D0539F49A81963380
:1007300018F4953311F424FE81E390E045C08A81DA
:10074000813309F00F7E90E0B301A9D3992091F095
:100750008EE290E0B301A3D312E0E1E0F0E0EC0F11
:10076000FD1FE10FF11D1F5F808190E0B30197D362
:100770009A9499F744FC03C085E690E002C085E4B2
:1007800090E0B3018CD3D7FC05C0C114D10441F46F
:1007900004FF06C0D094C194D108D3948DE201C067
:1007A0008BE290E0B3017BD380E305C08F5F26EF3F
:1007B0003FEFC20ED31E3AE0C316D104BCF790E05F
:1007C000B3016DD3C601C096B30169D3CC84DD8477
:1007D00046C1933631F0933799F0933509F055C0FF
:1007E00022C0F601808189835E010894A11CB11C9E
:1007F00022E030E0C20ED31E21E0E22EF12C11C027
:10080000F601A080B18016FD03C06FEF7FEF02C03C
:10081000692D70E022E030E0C20ED31EC50134D352
:100820007C011F7712C0F601A080B18016FD03C0C5
:100830006FEF7FEF02C0692D70E022E030E0C20E62
:10084000D31EC50116D37C01106813FF06C019C062
:1008500080E290E0B30123D38A94882D90E0E816DB
:10086000F906B0F30EC0F50117FD859117FF8191D0
:100870005F0190E0B30113D381108A940894E108DA
:10088000F108E114F10479F7EAC0943611F09936D1
:1008900081F517FF08C0F601208131814281538123
:1008A00084E090E00AC0F601808191819C01442798
:1008B00037FD4095542F82E090E0C80ED91E9FE688
:1008C000F92EF12257FF09C050954095309521959A
:1008D0003F4F4F4F5F4F90E8F92ACA01B901AE016F
:1008E0004F5F5F4F2AE030E027D3E82EE889EE1A09
:1008F00040C0953721F41F7E2AE030E01CC0197FEC
:100900009F3661F0903720F4983509F0ABC00FC0E6
:10091000903739F0983709F0A5C004C028E030E0DE
:100920000AC0106114FD146020E130E004C014FD21
:10093000166020E132E017FF08C0F6016081718186
:100940008281938144E050E008C0F601808191816A
:10095000BC0180E090E042E050E0C40ED51EAE0144
:100960004F5F5F4FE9D2E82E5889E51A8FE7F82EDE
:10097000F122F6FE0BC08EEFF822E91438F4F4FEF3
:1009800007C0F2FC05C09FEEF92202C01E2D01C077
:10099000192DF4FE0DC0FE01EE0DF11D8081803396
:1009A00019F4E9EEFE2208C01F5FF2FE05C003C085
:1009B0008F2D867809F01F5F0F2DF3FC13C0F0FE1A
:1009C0000EC0181510F09E2C0AC09E2C980C911A7F
:1009D000182D05C080E290E0B30161D21F5F1815A9
:1009E000C8F304C0181510F4811A01C0882404FF4C
:1009F0000EC080E390E0B30152D202FF1BC001FDA4
:100A000003C088E790E00EC088E590E00BC0802F1F
:100A1000867881F001FF02C08BE201C080E2F7FC22
:100A20008DE290E0B3013BD205C080E390E0B301DA
:100A300036D29A94E914C8F3EA94E1E0F0E0EC0FBE
:100A4000FD1FEE0DF11D808190E0B30128D2EE2054
:100A500099F705C080E290E0B30121D28A94882002
:100A6000C9F7B6CCF30166817781CB016196E2E1EB
:100A70000DC1E89409C097FB3EF490958095709560
:100A800061957F4F8F4F9F4F9923A9F0F92F96E9DA
:100A9000BB279395F695879577956795B795F1114F
:100AA000F8CFFAF4BB0F11F460FF1BC06F5F7F4FEC
:100AB0008F4F9F4F16C0882311F096E911C07723FE
:100AC00021F09EE8872F762F05C0662371F096E807
:100AD000862F70E060E02AF09A95660F771F881FD6
:100AE000DAF7880F9695879597F908950BD078C017
:100AF00069D028F06ED018F0952309F05AC05FC075
:100B00001124A2C07ED0A0F3959FD1F3950F50E0A1
:100B1000551F629FF001729FBB27F00DB11D639FAF
:100B2000AA27F00DB11DAA1F649F6627B00DA11D55
:100B3000661F829F2227B00DA11D621F739FB00DFB
:100B4000A11D621F839FA00D611D221F749F33276B
:100B5000A00D611D231F849F600D211D822F762F04
:100B60006A2F11249F5750408AF0E1F088234AF001
:100B7000EE0FFF1FBB1F661F771F881F915050404D
:100B8000A9F79E3F510570F014C05EC05F3FECF3C3
:100B9000983EDCF3869577956795B795F795E79539
:100BA0009F5FC1F7FE2B880F911D9695879597F94A
:100BB000089597F99F6780E870E060E008959FEFDF
:100BC00080EC089500240A941616170618060906E4
:100BD000089500240A9412161306140605060895B3
:100BE000092E0394000C11F4882352F0BB0F40F43B
:100BF000BF2B11F460FF04C06F5F7F4F8F4F9F4F7B
:100C0000089557FD9058440F551F59F05F3F71F0FC
:100C10004795880F97FB991F61F09F3F79F0879563
:100C20000895121613061406551FF2CF4695F1DFEC
:100C300008C0161617061806991FF1CF869571057C
:100C4000610508940895E894BB2766277727CB01B0
:100C500097F908952F923F924F925F926F927F92F1
:100C60008F929F92AF92BF92CF92DF92EF92FF92BC
:100C70000F931F93CF93DF93CDB7DEB7CA1BDB0B68
:100C80000FB6F894DEBF0FBECDBF09942A8839880D
:100C900048885F846E847D848C849B84AA84B98414
:100CA000C884DF80EE80FD800C811B81AA81B98120
:100CB000CE0FD11D0FB6F894DEBF0FBECDBFED0134
:100CC0000895283008F027E03327DA01990F311D05
:100CD00087FD916000966105710539F432602E5FE1
:100CE0003D9330E32A95E1F708959F3F30F0803837
:100CF0007105610509F03C5F3C5F3D93913008F060
:100D00008068911DDF93CF931F930F93FF92EF9213
:100D1000192F987F9695E92F96959695E90FFF27BD
:100D2000E857FF4F99273327EE24FF24A701E70157
:100D300005900894079428F4360FE71EF81E491F03
:100D4000511D660F771F881F991F0694A1F7059004
:100D5000079428F4E70EF81E491F561FC11D770F90
:100D6000881F991F661F0694A1F70590079428F421
:100D7000F80E491F561FC71FD11D880F991F661FE8
:100D8000771F0694A1F70590079420F4490F561F8A
:100D9000C71FD81F990F661F771F881F0694A9F7D2
:100DA00084911095177041F0D695C7955795479542
:100DB000F794E7941A95C1F7EEE2F0E06894159085
:100DC000159135916591959105907FE27395E118A4
:100DD000F10A430B560BC90BD009C0F7E10CF11E09
:100DE000431F561FC91FD01D7EF4703311F48A951E
:100DF000E6CFE894015030F0080F0AF400270217FC
:100E000008F4202F2395022F7A3328F079E37D937D
:100E10002A95E9F710C07D932A9589F6069497954F
:100E20006795379517951794E118F10A430B560B00
:100E3000C90BD00998F023957E9173957A3308F009
:100E400070E37C932013B8F77E9170617D9330F04E
:100E5000839571E37D9370E32A95E1F71124EF9078
:100E6000FF900F911F91CF91DF91992787FD90956A
:100E70000895FC010590615070400110D8F78095ED
:100E800090958E0F9F1F0895FC0161507040019056
:100E90000110D8F7809590958E0F9F1F08950F939E
:100EA0001F93CF93DF938C01EB018B8181FF1BC0DC
:100EB00082FF0DC02E813F818C819D8128173907CB
:100EC00064F4E881F9810193F983E88306C0E88539
:100ED000F985802F0995892B31F48E819F810196A8
:100EE0009F838E8302C00FEF1FEFC801DF91CF9168
:100EF0001F910F910895AEE0B0E0E0E8F7E0B8CEC2
:100F00000D891E8986E08C831A8309838FEF9FE702
:100F10009E838D839E01275E3F4FCE0101966F8990
:100F2000788DA9013EDA2F813885020F131FF80151
:100F300010822E96E4E0B8CEFA01AA27283051F1AB
:100F4000203181F1E8946F936E7F6E5F7F4F8F4FFA
:100F50009F4FAF4FB1E03ED0B4E03CD0670F781F59
:100F6000891F9A1FA11D680F791F8A1F911DA11D3E
:100F70006A0F711D811D911DA11D20D009F4689477
:100F80003F912AE0269F11243019305D3193DEF61F
:100F9000CF010895462F4770405D4193B3E00FD0D5
:100FA000C9F7F6CF462F4F70405D4A3318F0495DC0
:100FB00031FD4052419302D0A9F7EACFB4E0A695A3
:100FC0009795879577956795BA95C9F700976105C5
:100FD000710508959B01AC010A2E0694579547951B
:100FE00037952795BA95C9F7620F731F841F951F10
:080FF000A01D0895F894FFCF45
:100FF8002E2E2E2E2E2E2E2E2E2E2E746869732017
:101008006973206120746573742E2E2E2E2E2E2E59
:101018002E2E2E2E2E0056203D2025362E32660DE1
:021028000A00BC
:00000001FF
